:100000000C942A000C943F000C943F000C943F0089
:100010000C943F000C943F000C943F000C943F0064
:100020000C943F000C943F000C943F000C943F0054
:100030000C943F000C943F000C943F000C943F0044
:100040000C943F000C943F000C943F000C943F0034
:100050000C943F0011241FBECFE5D8E0DEBFCDBF1A
:1000600010E0A0E6B0E0ECE0FAE002C005900D92EE
:10007000A23BB107D9F70E944D030C9404050C94E0
:100080000000982F9770869586958695813021F18E
:1000900030F08230F1F1833009F458C008956130B6
:1000A00069F44BB321E030E0B90102C0660F771F5D
:1000B0009A95E2F7CB01842B8BBB08954BB321E0DB
:1000C00030E0B90102C0660F771F9A95E2F7CB01C5
:1000D000809584238BBB0895613069F448B321E097
:1000E00030E0B90102C0660F771F9A95E2F7CB01A5
:1000F000842B88BB089548B321E030E0B90102C0E9
:10010000660F771F9A95E2F7CB018095842388BB11
:100110000895613069F445B321E030E0B90102C0CF
:10012000660F771F9A95E2F7CB01842B85BB089564
:1001300045B321E030E0B90102C0660F771F9A9500
:10014000E2F7CB018095842385BB0895613069F483
:1001500042B321E030E0B90102C0660F771F9A95E3
:10016000E2F7CB01842B82BB089542B321E030E05B
:10017000B90102C0660F771F9A95E2F7CB0180950F
:10018000842382BB0895E0E6F0E080E041E050E0A7
:10019000282F2770982F969596959695913009F16E
:1001A00030F09230C1F1933009F44FC067C09081B4
:1001B000913059F49AB3BA0102C0660F771F2A959D
:1001C000E2F79B01292B2ABB59C03AB3BA0102C0FE
:1001D000660F771F2A95E2F7962F909593239ABB87
:1001E0004DC09081913059F497B3BA0102C0660FA7
:1001F000771F2A95E2F79B01292B27BB3FC037B316
:10020000BA0102C0660F771F2A95E2F7962F9095E4
:10021000932397BB33C09081913059F494B3BA01C2
:1002200002C0660F771F2A95E2F79B01292B24BB9A
:1002300025C034B3BA0102C0660F771F2A95E2F7D2
:10024000962F9095932394BB19C09081913059F4C7
:1002500091B3BA0102C0660F771F2A95E2F79B019E
:10026000292B21BB0BC031B3BA0102C0660F771F27
:100270002A95E2F7962F9095932391BB8F5F329644
:10028000803209F085CF08958EEF82BB2FEF82E593
:1002900097E0215080409040E1F700C00000849931
:1002A0000BC02FEF81EE94E0215080409040E1F7A9
:1002B00000C000008DE301C080E085990AC02FEFE7
:1002C00081EE94E0215080409040E1F700C00000B2
:1002D0008FE286990AC02FEF81EE94E02150804092
:1002E0009040E1F700C000008DE287990AC02FEF2F
:1002F00081EE94E0215080409040E1F700C0000082
:100300008BE208958DEF82BB2FEF82E597E02150BD
:1003100080409040E1F700C0000084990BC02FEFAF
:1003200081EE94E0215080409040E1F700C0000051
:1003300083E201C080E085990AC02FEF81EE94E04E
:10034000215080409040E1F700C0000089E3869989
:100350000AC02FEF81EE94E0215080409040E1F7F9
:1003600000C0000086E387990AC02FEF81EE94E079
:10037000215080409040E1F700C0000083E30895E1
:100380008BEF82BB2FEF82E597E0215080409040B9
:10039000E1F700C0000084990BC02FEF81EE94E0DC
:1003A000215080409040E1F700C0000080E301C090
:1003B00080E085990AC02FEF81EE94E021508040C3
:1003C0009040E1F700C0000088E386990AC02FEF53
:1003D00081EE94E0215080409040E1F700C00000A1
:1003E00085E387990AC02FEF81EE94E02150804089
:1003F0009040E1F700C0000082E3089587EF82BBE0
:100400002FEF82E597E0215080409040E1F700C057
:10041000000084990BC02FEF81EE94E021508040C2
:100420009040E1F700C0000088E701C080E08599B6
:100430000AC02FEF81EE94E0215080409040E1F718
:1004400000C0000087E386990AC02FEF81EE94E098
:10045000215080409040E1F700C0000084E387997C
:100460000AC02FEF81EE94E0215080409040E1F7E8
:1004700000C0000081E308950E94440181110CC076
:100480000E948201811108C00E94C001811104C034
:100490000E94FE01811100C00895CF93C82F8BB335
:1004A0008F709C2F907F892B8BBB60E089E00E942E
:1004B000410061E08BE00E9441008FE891E00197EC
:1004C000F1F700C0000060E08BE00E9441008FE186
:1004D0009EE40197F1F700C000008BB3282F2F7026
:1004E00030E1C39FC0011124822B8BBB60E089E007
:1004F0000E94410061E08BE00E9441008FE891E0A2
:100500000197F1F700C0000060E08BE00E9441001D
:100510008FE39FE10197F1F700C00000CF910895AC
:1005200060E08AE00E9441002FEF89EF90E02150C7
:1005300080409040E1F700C0000083E30E944D023C
:100540008FE193E00197F1F700C0000082E30E9481
:100550004D0288E20E944D0286E00E944D0288E131
:100560000E944D028CE00E944D0281E00E944D02EB
:100570008FE39FE10197F1F700C000000895CF934A
:10058000C82F8BB38F709C2F907F892B8BBB61E022
:1005900089E00E94410061E08BE00E9441008FE809
:1005A00091E00197F1F700C0000060E08BE00E944D
:1005B00041008FE19EE40197F1F700C000008BB38A
:1005C000282F2F7030E1C39FC0011124822B8BBBD9
:1005D00061E089E00E94410061E08BE00E944100FF
:1005E0008FE891E00197F1F700C0000060E08BE038
:1005F0000E9441008FE39FE10197F1F700C00000E6
:10060000CF9108950F931F93CF93FC01808188238E
:1006100059F08F01C0E00E94BF02CF5FF801EC0FDC
:10062000F11D80818111F7CFCF911F910F91089516
:10063000CF93DF93EC01613019F0623051F011C0BB
:10064000842F8F7080680E944D02CE010E940203A9
:1006500008C0842F8F70806C0E944D02CE010E94D2
:100660000203DF91CF910895813019F0823049F073
:10067000089580E80E944D0280EA90E00E94020303
:10068000089580EC0E944D0280EA90E00E940203EF
:10069000089581E00E944D020895CF93DF93CDB776
:1006A000DEB7C155D1090FB6F894DEBF0FBECDBF7E
:1006B0000E94C3000E9490020E9449031A8219827C
:1006C0008EE0FE013396DF01982F1D929A95E9F78F
:1006D0001A8A198A7096DF01982F1D929A95E9F768
:1006E0001AA219A27096DF011D928A95E9F73E962B
:1006F00080E2DF011D928A95E9F7A12CB12C10E070
:10070000F0977F010F2EFDE26F2EF02D0E943C022C
:10071000082F62968FAF62978823C1F3833209F462
:10072000CAC00E94BF0241E050E0BE016F5A7F4F35
:10073000C7010E94AC040D3349F7CE0101964C016C
:10074000C12CD12C48C0D4017D904D01BFEFCB1AF4
:10075000DB0A872D8B7F8B3231F0EDE27E1619F0AC
:10076000F8E77F1238C0B701CE0181960E94AC0431
:10077000CE0181960E948E04F501EE0FFF1FEE0D53
:10078000FF1D91AB80AB19A28FEFA81AB80A8601A2
:100790000BC0B701600F711F41E050E0CE018196A0
:1007A0000E94AC040F5F1F4FF70101900020E9F792
:1007B000CF018E199F0902970817190750F3CE0130
:1007C00081960E948E04F501EE0FFF1FEE0DFF1DB6
:1007D00091AB80AB172DF70101900020E9F7CF0115
:1007E0008E199F094C2D5D2D0297C816D90608F465
:1007F000AACF1D32C1F018F41B3239F052C01F329B
:1008000009F441C0183759F14CC029A93AA98BA95C
:100810009CA94AE050E0BE016F5E7F4F820F931F9C
:100820000E94BC043EC089A99AA92BA93CA98217A1
:1008300093075CF4698A4AE050E0BE016F5E7F4F27
:10084000821B930B0E94BC042CC04AE050E0BE0106
:100850006F5E7F4F821B930B0E94BC0422C029A9AC
:100860003AA98BA99CA94AE050E0BE016F5E7F4F78
:10087000DC012A9FC0012B9F900D3A9F900D1124FF
:100880000E94BC040EC089A99AA96BA97CA90E94E8
:100890006604CB014AE050E0BE016F5E7F4F0E94CC
:1008A000BC0481E00E94340340E061E0CE01419647
:1008B0000E9418032BCF0E9449031AAA19AA19A251
:1008C0001982198AA12CB12C10E020CF97FB072E9A
:1008D00016F4009407D077FD09D00E947A0407FC33
:1008E00005D03EF4909581959F4F08957095619540
:1008F0007F4F0895AA1BBB1B51E107C0AA1FBB1F56
:10090000A617B70710F0A61BB70B881F991F5A959B
:10091000A9F780959095BC01CD010895FC01882729
:100920009927E89421912032E9F3293010F02E30F4
:10093000C8F32B3241F02D3239F4689404C00E9480
:10094000D204820F911D219120532A30C0F31EF44E
:10095000909581959F4F0895FB01DC010D9000203B
:10096000E9F711974150504028F0019000200D9276
:10097000C9F708951C9208954532510520F442307C
:1009800010F00C94C704FB011082CB010895BB2723
:100990004A3031F4992322F4BDE2909581959F4F1E
:1009A0000C94DB047AE0979F902D879F802D910D0A
:1009B00011240895BB27FB015527AA27880F991FEB
:1009C000AA1FA41710F0A41B83955051B9F7A05D7E
:1009D000AA3308F0A95DA193009779F7B111B193FB
:1009E0001192CB010C94F404DC01FC01672F71918E
:1009F0007723E1F7329704C07C916D937083629105
:0C0A0000AE17BF07C8F30895F894FFCFAD
:100A0C0001010101010101010101010101010101CA
:100A1C0001010101010101010101010101010101BA
:100A2C0001010101010101010101010101010101AA
:100A3C0001010101010101010000000000000000A2
:100A4C00202020202020202020202020202020209A
:020A5C00000098
:00000001FF
